{
  "_format": "hh-sol-artifact-1",
  "contractName": "CitadelVault",
  "sourceName": "contracts/CitadelVault.sol",
  "abi": [
    {
      "anonymous": false,
      "inputs": [
        {
          "indexed": true,
          "internalType": "uint256",
          "name": "id",
          "type": "uint256"
        },
        {
          "indexed": true,
          "internalType": "address",
          "name": "beneficiary",
          "type": "address"
        }
      ],
      "name": "BeneficiarySet",
      "type": "event"
    },
    {
      "anonymous": false,
      "inputs": [
        {
          "indexed": true,
          "internalType": "uint256",
          "name": "id",
          "type": "uint256"
        },
        {
          "indexed": true,
          "internalType": "address",
          "name": "from",
          "type": "address"
        },
        {
          "indexed": false,
          "internalType": "uint256",
          "name": "amount",
          "type": "uint256"
        },
        {
          "indexed": false,
          "internalType": "uint256",
          "name": "newBalance",
          "type": "uint256"
        }
      ],
      "name": "Deposited",
      "type": "event"
    },
    {
      "anonymous": false,
      "inputs": [
        {
          "indexed": true,
          "internalType": "uint256",
          "name": "id",
          "type": "uint256"
        },
        {
          "indexed": true,
          "internalType": "address",
          "name": "guardian",
          "type": "address"
        },
        {
          "indexed": false,
          "internalType": "uint256",
          "name": "approvals",
          "type": "uint256"
        },
        {
          "indexed": false,
          "internalType": "bool",
          "name": "enabled",
          "type": "bool"
        }
      ],
      "name": "EarlyApproval",
      "type": "event"
    },
    {
      "anonymous": false,
      "inputs": [
        {
          "indexed": true,
          "internalType": "uint256",
          "name": "id",
          "type": "uint256"
        },
        {
          "indexed": false,
          "internalType": "address[]",
          "name": "guardians",
          "type": "address[]"
        }
      ],
      "name": "GuardiansAdded",
      "type": "event"
    },
    {
      "anonymous": false,
      "inputs": [
        {
          "indexed": true,
          "internalType": "uint256",
          "name": "id",
          "type": "uint256"
        },
        {
          "indexed": false,
          "internalType": "address[]",
          "name": "guardians",
          "type": "address[]"
        }
      ],
      "name": "GuardiansRemoved",
      "type": "event"
    },
    {
      "anonymous": false,
      "inputs": [
        {
          "indexed": true,
          "internalType": "uint256",
          "name": "id",
          "type": "uint256"
        },
        {
          "indexed": false,
          "internalType": "uint8",
          "name": "threshold",
          "type": "uint8"
        }
      ],
      "name": "ThresholdUpdated",
      "type": "event"
    },
    {
      "anonymous": false,
      "inputs": [
        {
          "indexed": true,
          "internalType": "uint256",
          "name": "id",
          "type": "uint256"
        },
        {
          "indexed": true,
          "internalType": "address",
          "name": "owner",
          "type": "address"
        },
        {
          "indexed": false,
          "internalType": "uint64",
          "name": "unlockAt",
          "type": "uint64"
        },
        {
          "indexed": false,
          "internalType": "uint256",
          "name": "target",
          "type": "uint256"
        },
        {
          "indexed": false,
          "internalType": "uint8",
          "name": "threshold",
          "type": "uint8"
        }
      ],
      "name": "VaultCreated",
      "type": "event"
    },
    {
      "anonymous": false,
      "inputs": [
        {
          "indexed": true,
          "internalType": "uint256",
          "name": "id",
          "type": "uint256"
        },
        {
          "indexed": true,
          "internalType": "address",
          "name": "to",
          "type": "address"
        },
        {
          "indexed": false,
          "internalType": "uint256",
          "name": "amount",
          "type": "uint256"
        },
        {
          "indexed": false,
          "internalType": "uint256",
          "name": "remaining",
          "type": "uint256"
        }
      ],
      "name": "Withdrawn",
      "type": "event"
    },
    {
      "inputs": [
        {
          "internalType": "uint256",
          "name": "id",
          "type": "uint256"
        },
        {
          "internalType": "address[]",
          "name": "guardians",
          "type": "address[]"
        }
      ],
      "name": "addGuardians",
      "outputs": [],
      "stateMutability": "nonpayable",
      "type": "function"
    },
    {
      "inputs": [
        {
          "internalType": "uint256",
          "name": "",
          "type": "uint256"
        }
      ],
      "name": "approvalCount",
      "outputs": [
        {
          "internalType": "uint256",
          "name": "",
          "type": "uint256"
        }
      ],
      "stateMutability": "view",
      "type": "function"
    },
    {
      "inputs": [
        {
          "internalType": "uint256",
          "name": "id",
          "type": "uint256"
        }
      ],
      "name": "approveEarly",
      "outputs": [],
      "stateMutability": "nonpayable",
      "type": "function"
    },
    {
      "inputs": [
        {
          "internalType": "uint64",
          "name": "unlockAt",
          "type": "uint64"
        },
        {
          "internalType": "uint256",
          "name": "target",
          "type": "uint256"
        },
        {
          "internalType": "address",
          "name": "beneficiary",
          "type": "address"
        },
        {
          "internalType": "address[]",
          "name": "guardians",
          "type": "address[]"
        },
        {
          "internalType": "uint8",
          "name": "threshold",
          "type": "uint8"
        },
        {
          "internalType": "address",
          "name": "token",
          "type": "address"
        }
      ],
      "name": "createVault",
      "outputs": [
        {
          "internalType": "uint256",
          "name": "id",
          "type": "uint256"
        }
      ],
      "stateMutability": "nonpayable",
      "type": "function"
    },
    {
      "inputs": [
        {
          "internalType": "uint256",
          "name": "id",
          "type": "uint256"
        }
      ],
      "name": "deposit",
      "outputs": [],
      "stateMutability": "payable",
      "type": "function"
    },
    {
      "inputs": [
        {
          "internalType": "uint256",
          "name": "id",
          "type": "uint256"
        },
        {
          "internalType": "uint256",
          "name": "amount",
          "type": "uint256"
        }
      ],
      "name": "depositToken",
      "outputs": [],
      "stateMutability": "nonpayable",
      "type": "function"
    },
    {
      "inputs": [
        {
          "internalType": "uint256",
          "name": "id",
          "type": "uint256"
        }
      ],
      "name": "getGuardians",
      "outputs": [
        {
          "internalType": "address[]",
          "name": "list",
          "type": "address[]"
        }
      ],
      "stateMutability": "view",
      "type": "function"
    },
    {
      "inputs": [
        {
          "internalType": "uint256",
          "name": "id",
          "type": "uint256"
        }
      ],
      "name": "getVault",
      "outputs": [
        {
          "internalType": "address",
          "name": "owner",
          "type": "address"
        },
        {
          "internalType": "address",
          "name": "beneficiary",
          "type": "address"
        },
        {
          "internalType": "uint64",
          "name": "unlockAt",
          "type": "uint64"
        },
        {
          "internalType": "uint256",
          "name": "target",
          "type": "uint256"
        },
        {
          "internalType": "uint256",
          "name": "balance",
          "type": "uint256"
        },
        {
          "internalType": "uint8",
          "name": "threshold",
          "type": "uint8"
        },
        {
          "internalType": "uint256",
          "name": "approvals",
          "type": "uint256"
        },
        {
          "internalType": "bool",
          "name": "earlyEnabled",
          "type": "bool"
        },
        {
          "internalType": "address",
          "name": "token",
          "type": "address"
        }
      ],
      "stateMutability": "view",
      "type": "function"
    },
    {
      "inputs": [
        {
          "internalType": "uint256",
          "name": "",
          "type": "uint256"
        },
        {
          "internalType": "uint256",
          "name": "",
          "type": "uint256"
        }
      ],
      "name": "guardianList",
      "outputs": [
        {
          "internalType": "address",
          "name": "",
          "type": "address"
        }
      ],
      "stateMutability": "view",
      "type": "function"
    },
    {
      "inputs": [
        {
          "internalType": "uint256",
          "name": "",
          "type": "uint256"
        },
        {
          "internalType": "address",
          "name": "",
          "type": "address"
        }
      ],
      "name": "hasApproved",
      "outputs": [
        {
          "internalType": "bool",
          "name": "",
          "type": "bool"
        }
      ],
      "stateMutability": "view",
      "type": "function"
    },
    {
      "inputs": [
        {
          "internalType": "uint256",
          "name": "",
          "type": "uint256"
        },
        {
          "internalType": "address",
          "name": "",
          "type": "address"
        }
      ],
      "name": "isGuardian",
      "outputs": [
        {
          "internalType": "bool",
          "name": "",
          "type": "bool"
        }
      ],
      "stateMutability": "view",
      "type": "function"
    },
    {
      "inputs": [],
      "name": "nextVaultId",
      "outputs": [
        {
          "internalType": "uint256",
          "name": "",
          "type": "uint256"
        }
      ],
      "stateMutability": "view",
      "type": "function"
    },
    {
      "inputs": [
        {
          "internalType": "uint256",
          "name": "id",
          "type": "uint256"
        },
        {
          "internalType": "address[]",
          "name": "guardians",
          "type": "address[]"
        }
      ],
      "name": "removeGuardians",
      "outputs": [],
      "stateMutability": "nonpayable",
      "type": "function"
    },
    {
      "inputs": [
        {
          "internalType": "uint256",
          "name": "id",
          "type": "uint256"
        },
        {
          "internalType": "address",
          "name": "beneficiary",
          "type": "address"
        }
      ],
      "name": "setBeneficiary",
      "outputs": [],
      "stateMutability": "nonpayable",
      "type": "function"
    },
    {
      "inputs": [
        {
          "internalType": "uint256",
          "name": "id",
          "type": "uint256"
        },
        {
          "internalType": "uint8",
          "name": "threshold",
          "type": "uint8"
        }
      ],
      "name": "setThreshold",
      "outputs": [],
      "stateMutability": "nonpayable",
      "type": "function"
    },
    {
      "inputs": [
        {
          "internalType": "uint256",
          "name": "",
          "type": "uint256"
        }
      ],
      "name": "vaults",
      "outputs": [
        {
          "internalType": "address",
          "name": "owner",
          "type": "address"
        },
        {
          "internalType": "address",
          "name": "beneficiary",
          "type": "address"
        },
        {
          "internalType": "uint64",
          "name": "unlockAt",
          "type": "uint64"
        },
        {
          "internalType": "uint256",
          "name": "target",
          "type": "uint256"
        },
        {
          "internalType": "uint256",
          "name": "balance",
          "type": "uint256"
        },
        {
          "internalType": "uint8",
          "name": "threshold",
          "type": "uint8"
        },
        {
          "internalType": "bool",
          "name": "earlyEnabled",
          "type": "bool"
        },
        {
          "internalType": "address",
          "name": "token",
          "type": "address"
        }
      ],
      "stateMutability": "view",
      "type": "function"
    },
    {
      "inputs": [
        {
          "internalType": "uint256",
          "name": "id",
          "type": "uint256"
        },
        {
          "internalType": "uint256",
          "name": "amount",
          "type": "uint256"
        }
      ],
      "name": "withdrawOwner",
      "outputs": [],
      "stateMutability": "nonpayable",
      "type": "function"
    },
    {
      "inputs": [
        {
          "internalType": "uint256",
          "name": "id",
          "type": "uint256"
        },
        {
          "internalType": "uint256",
          "name": "amount",
          "type": "uint256"
        }
      ],
      "name": "withdrawToBeneficiary",
      "outputs": [],
      "stateMutability": "nonpayable",
      "type": "function"
    }
  ],
  "bytecode": "0x608060405234801561001057600080fd5b506140e7806100206000396000f3fe6080604052600436106101095760003560e01c80637ce12954116100955780639d2d04d1116100645780639d2d04d1146103ac578063b6b55f25146103d5578063c3dafbf0146103f1578063c773d96d1461042e578063dff414151461046b57610109565b80637ce12954146102bd5780637f8337be146102fa5780638c64ea4a146103235780639403b6341461036757610109565b80632358d5a8116100dc5780632358d5a8146101c85780633b1c3f51146102055780634082b56a1461022e57806340ad01ea14610257578063742941441461029457610109565b8063056f179e1461010e57806307d652191461014b57806312ac1763146101745780631c846d591461019f575b600080fd5b34801561011a57600080fd5b5061013560048036038101906101309190612fe5565b610494565b60405161014291906130a3565b60405180910390f35b34801561015757600080fd5b50610172600480360381019061016d91906130be565b610919565b005b34801561018057600080fd5b50610189610ca9565b60405161019691906130a3565b60405180910390f35b3480156101ab57600080fd5b506101c660048036038101906101c191906130eb565b610caf565b005b3480156101d457600080fd5b506101ef60048036038101906101ea91906130eb565b610de4565b6040516101fc9190613146565b60405180910390f35b34801561021157600080fd5b5061022c60048036038101906102279190613161565b610e13565b005b34801561023a57600080fd5b5061025560048036038101906102509190613161565b6113ed565b005b34801561026357600080fd5b5061027e600480360381019061027991906130be565b61194d565b60405161028b91906130a3565b60405180910390f35b3480156102a057600080fd5b506102bb60048036038101906102b691906131a1565b611965565b005b3480156102c957600080fd5b506102e460048036038101906102df9190613161565b611b2e565b6040516102f191906131f0565b60405180910390f35b34801561030657600080fd5b50610321600480360381019061031c919061320b565b611b7c565b005b34801561032f57600080fd5b5061034a600480360381019061034591906130be565b611fa6565b60405161035e989796959493929190613289565b60405180910390f35b34801561037357600080fd5b5061038e600480360381019061038991906130be565b61207c565b6040516103a399989796959493929190613307565b60405180910390f35b3480156103b857600080fd5b506103d360048036038101906103ce9190613161565b61218a565b005b6103ef60048036038101906103ea91906130be565b612462565b005b3480156103fd57600080fd5b50610418600480360381019061041391906130be565b612656565b6040516104259190613452565b60405180910390f35b34801561043a57600080fd5b50610455600480360381019061045091906130eb565b6126f7565b6040516104629190613146565b60405180910390f35b34801561047757600080fd5b50610492600480360381019061048d919061320b565b612726565b005b6000428867ffffffffffffffff16116104e2576040517f08c379a00000000000000000000000000000000000000000000000000000000081526004016104d9906134d1565b60405180910390fd5b60008360ff161180156104fb5750848490508360ff1611155b61053a576040517f08c379a00000000000000000000000000000000000000000000000000000000081526004016105319061353d565b60405180910390fd5b60008081546105489061358c565b91905081905590506000600160008381526020019081526020016000209050338160000160006101000a81548173ffffffffffffffffffffffffffffffffffffffff021916908373ffffffffffffffffffffffffffffffffffffffff160217905550868160010160006101000a81548173ffffffffffffffffffffffffffffffffffffffff021916908373ffffffffffffffffffffffffffffffffffffffff160217905550888160010160146101000a81548167ffffffffffffffff021916908367ffffffffffffffff160217905550878160020181905550838160040160006101000a81548160ff021916908360ff160217905550828160040160026101000a81548173ffffffffffffffffffffffffffffffffffffffff021916908373ffffffffffffffffffffffffffffffffffffffff16021790555060005b868690508110156108b95760008787838181106106a4576106a36135d4565b5b90506020020160208101906106b99190613603565b9050600073ffffffffffffffffffffffffffffffffffffffff168173ffffffffffffffffffffffffffffffffffffffff160361072a576040517f08c379a00000000000000000000000000000000000000000000000000000000081526004016107219061367c565b60405180910390fd5b6002600085815260200190815260200160002060008273ffffffffffffffffffffffffffffffffffffffff1673ffffffffffffffffffffffffffffffffffffffff16815260200190815260200160002060009054906101000a900460ff16156107c8576040517f08c379a00000000000000000000000000000000000000000000000000000000081526004016107bf906136e8565b60405180910390fd5b60016002600086815260200190815260200160002060008373ffffffffffffffffffffffffffffffffffffffff1673ffffffffffffffffffffffffffffffffffffffff16815260200190815260200160002060006101000a81548160ff02191690831515021790555060036000858152602001908152602001600020819080600181540180825580915050600190039060005260206000200160009091909190916101000a81548173ffffffffffffffffffffffffffffffffffffffff021916908373ffffffffffffffffffffffffffffffffffffffff1602179055505080806108b19061358c565b915050610684565b503373ffffffffffffffffffffffffffffffffffffffff16827f504ffb1781d4f0d41aa9c77ace4866896b260222a7d0d069f2f6af1b1f0737d08b8b8860405161090593929190613708565b60405180910390a350979650505050505050565b6000600160008381526020019081526020016000209050600073ffffffffffffffffffffffffffffffffffffffff168160000160009054906101000a900473ffffffffffffffffffffffffffffffffffffffff1673ffffffffffffffffffffffffffffffffffffffff16036109c3576040517f08c379a00000000000000000000000000000000000000000000000000000000081526004016109ba9061378b565b60405180910390fd5b6002600083815260200190815260200160002060003373ffffffffffffffffffffffffffffffffffffffff1673ffffffffffffffffffffffffffffffffffffffff16815260200190815260200160002060009054906101000a900460ff16610a60576040517f08c379a0000000000000000000000000000000000000000000000000000000008152600401610a57906137f7565b60405180910390fd5b6005600083815260200190815260200160002060003373ffffffffffffffffffffffffffffffffffffffff1673ffffffffffffffffffffffffffffffffffffffff16815260200190815260200160002060009054906101000a900460ff1615610afe576040517f08c379a0000000000000000000000000000000000000000000000000000000008152600401610af590613863565b60405180910390fd5b8060040160019054906101000a900460ff1615610b50576040517f08c379a0000000000000000000000000000000000000000000000000000000008152600401610b47906138cf565b60405180910390fd5b60016005600084815260200190815260200160002060003373ffffffffffffffffffffffffffffffffffffffff1673ffffffffffffffffffffffffffffffffffffffff16815260200190815260200160002060006101000a81548160ff0219169083151502179055506001600460008481526020019081526020016000206000828254610bdd91906138ef565b925050819055508060040160009054906101000a900460ff1660ff16600460008481526020019081526020016000205410610c305760018160040160016101000a81548160ff0219169083151502179055505b3373ffffffffffffffffffffffffffffffffffffffff16827f11dd7dc25d2483340c919c44c7e7d796c67c212f755bac71ed874acca31903b160046000868152602001908152602001600020548460040160019054906101000a900460ff16604051610c9d929190613923565b60405180910390a35050565b60005481565b60006001600084815260200190815260200160002090508060000160009054906101000a900473ffffffffffffffffffffffffffffffffffffffff1673ffffffffffffffffffffffffffffffffffffffff163373ffffffffffffffffffffffffffffffffffffffff1614610d58576040517f08c379a0000000000000000000000000000000000000000000000000000000008152600401610d4f90613998565b60405180910390fd5b818160010160006101000a81548173ffffffffffffffffffffffffffffffffffffffff021916908373ffffffffffffffffffffffffffffffffffffffff1602179055508173ffffffffffffffffffffffffffffffffffffffff16837fc86a110aa1766ba4b859c168a83f6cff38cd5cec05052a5eba292e4604ea258960405160405180910390a3505050565b60056020528160005260406000206020528060005260406000206000915091509054906101000a900460ff1681565b600660009054906101000a900460ff1615610e63576040517f08c379a0000000000000000000000000000000000000000000000000000000008152600401610e5a90613a04565b60405180910390fd5b6001600660006101000a81548160ff02191690831515021790555060006001600084815260200190815260200160002090508060000160009054906101000a900473ffffffffffffffffffffffffffffffffffffffff1673ffffffffffffffffffffffffffffffffffffffff163373ffffffffffffffffffffffffffffffffffffffff1614610f27576040517f08c379a0000000000000000000000000000000000000000000000000000000008152600401610f1e90613998565b60405180910390fd5b600073ffffffffffffffffffffffffffffffffffffffff168160000160009054906101000a900473ffffffffffffffffffffffffffffffffffffffff1673ffffffffffffffffffffffffffffffffffffffff1603610fba576040517f08c379a0000000000000000000000000000000000000000000000000000000008152600401610fb19061378b565b60405180910390fd5b600073ffffffffffffffffffffffffffffffffffffffff168160010160009054906101000a900473ffffffffffffffffffffffffffffffffffffffff1673ffffffffffffffffffffffffffffffffffffffff160361104d576040517f08c379a000000000000000000000000000000000000000000000000000000000815260040161104490613a70565b60405180910390fd5b600082118015611061575080600301548211155b6110a0576040517f08c379a000000000000000000000000000000000000000000000000000000000815260040161109790613adc565b60405180910390fd5b8060010160149054906101000a900467ffffffffffffffff1667ffffffffffffffff16421015611105576040517f08c379a00000000000000000000000000000000000000000000000000000000081526004016110fc90613b48565b60405180910390fd5b818160030160008282546111199190613b68565b92505081905550600073ffffffffffffffffffffffffffffffffffffffff168160040160029054906101000a900473ffffffffffffffffffffffffffffffffffffffff1673ffffffffffffffffffffffffffffffffffffffff160361124e5760008160010160009054906101000a900473ffffffffffffffffffffffffffffffffffffffff1673ffffffffffffffffffffffffffffffffffffffff16836040516111c290613bcd565b60006040518083038185875af1925050503d80600081146111ff576040519150601f19603f3d011682016040523d82523d6000602084013e611204565b606091505b5050905080611248576040517f08c379a000000000000000000000000000000000000000000000000000000000815260040161123f90613c2e565b60405180910390fd5b50611354565b8060040160029054906101000a900473ffffffffffffffffffffffffffffffffffffffff1673ffffffffffffffffffffffffffffffffffffffff1663a9059cbb8260010160009054906101000a900473ffffffffffffffffffffffffffffffffffffffff16846040518363ffffffff1660e01b81526004016112d1929190613c4e565b6020604051808303816000875af11580156112f0573d6000803e3d6000fd5b505050506040513d601f19601f820116820180604052508101906113149190613ca3565b611353576040517f08c379a000000000000000000000000000000000000000000000000000000000815260040161134a90613c2e565b60405180910390fd5b5b8060010160009054906101000a900473ffffffffffffffffffffffffffffffffffffffff1673ffffffffffffffffffffffffffffffffffffffff16837f1c84cc0f96161bdafea718a9094dd21c21d1fb2f9ca2ebb9bd4e39918efbaace8484600301546040516113c5929190613cd0565b60405180910390a3506000600660006101000a81548160ff0219169083151502179055505050565b600660009054906101000a900460ff161561143d576040517f08c379a000000000000000000000000000000000000000000000000000000000815260040161143490613a04565b60405180910390fd5b6001600660006101000a81548160ff02191690831515021790555060006001600084815260200190815260200160002090508060000160009054906101000a900473ffffffffffffffffffffffffffffffffffffffff1673ffffffffffffffffffffffffffffffffffffffff163373ffffffffffffffffffffffffffffffffffffffff1614611501576040517f08c379a00000000000000000000000000000000000000000000000000000000081526004016114f890613998565b60405180910390fd5b600073ffffffffffffffffffffffffffffffffffffffff168160000160009054906101000a900473ffffffffffffffffffffffffffffffffffffffff1673ffffffffffffffffffffffffffffffffffffffff1603611594576040517f08c379a000000000000000000000000000000000000000000000000000000000815260040161158b9061378b565b60405180910390fd5b6000821180156115a8575080600301548211155b6115e7576040517f08c379a00000000000000000000000000000000000000000000000000000000081526004016115de90613adc565b60405180910390fd5b8060010160149054906101000a900467ffffffffffffffff1667ffffffffffffffff164210158061162657508060040160019054906101000a900460ff165b611665576040517f08c379a000000000000000000000000000000000000000000000000000000000815260040161165c90613b48565b60405180910390fd5b818160030160008282546116799190613b68565b92505081905550600073ffffffffffffffffffffffffffffffffffffffff168160040160029054906101000a900473ffffffffffffffffffffffffffffffffffffffff1673ffffffffffffffffffffffffffffffffffffffff16036117ae5760008160000160009054906101000a900473ffffffffffffffffffffffffffffffffffffffff1673ffffffffffffffffffffffffffffffffffffffff168360405161172290613bcd565b60006040518083038185875af1925050503d806000811461175f576040519150601f19603f3d011682016040523d82523d6000602084013e611764565b606091505b50509050806117a8576040517f08c379a000000000000000000000000000000000000000000000000000000000815260040161179f90613c2e565b60405180910390fd5b506118b4565b8060040160029054906101000a900473ffffffffffffffffffffffffffffffffffffffff1673ffffffffffffffffffffffffffffffffffffffff1663a9059cbb8260000160009054906101000a900473ffffffffffffffffffffffffffffffffffffffff16846040518363ffffffff1660e01b8152600401611831929190613c4e565b6020604051808303816000875af1158015611850573d6000803e3d6000fd5b505050506040513d601f19601f820116820180604052508101906118749190613ca3565b6118b3576040517f08c379a00000000000000000000000000000000000000000000000000000000081526004016118aa90613c2e565b60405180910390fd5b5b8060000160009054906101000a900473ffffffffffffffffffffffffffffffffffffffff1673ffffffffffffffffffffffffffffffffffffffff16837f1c84cc0f96161bdafea718a9094dd21c21d1fb2f9ca2ebb9bd4e39918efbaace848460030154604051611925929190613cd0565b60405180910390a3506000600660006101000a81548160ff0219169083151502179055505050565b60046020528060005260406000206000915090505481565b60006001600084815260200190815260200160002090508060000160009054906101000a900473ffffffffffffffffffffffffffffffffffffffff1673ffffffffffffffffffffffffffffffffffffffff163373ffffffffffffffffffffffffffffffffffffffff1614611a0e576040517f08c379a0000000000000000000000000000000000000000000000000000000008152600401611a0590613998565b60405180910390fd5b8060040160019054906101000a900460ff1615611a60576040517f08c379a0000000000000000000000000000000000000000000000000000000008152600401611a5790613d45565b60405180910390fd5b60008260ff16118015611a8c575060036000848152602001908152602001600020805490508260ff1611155b611acb576040517f08c379a0000000000000000000000000000000000000000000000000000000008152600401611ac29061353d565b60405180910390fd5b818160040160006101000a81548160ff021916908360ff160217905550611af183612b30565b827fea90cd86d440427f0368147e689d34b7d625047c7f18e3bb8929793f6115107483604051611b219190613d65565b60405180910390a2505050565b60036020528160005260406000208181548110611b4a57600080fd5b906000526020600020016000915091509054906101000a900473ffffffffffffffffffffffffffffffffffffffff1681565b60006001600085815260200190815260200160002090508060000160009054906101000a900473ffffffffffffffffffffffffffffffffffffffff1673ffffffffffffffffffffffffffffffffffffffff163373ffffffffffffffffffffffffffffffffffffffff1614611c25576040517f08c379a0000000000000000000000000000000000000000000000000000000008152600401611c1c90613998565b60405180910390fd5b8060040160019054906101000a900460ff1615611c77576040517f08c379a0000000000000000000000000000000000000000000000000000000008152600401611c6e90613d45565b60405180910390fd5b60005b83839050811015611ea2576000848483818110611c9a57611c996135d4565b5b9050602002016020810190611caf9190613603565b90506002600087815260200190815260200160002060008273ffffffffffffffffffffffffffffffffffffffff1673ffffffffffffffffffffffffffffffffffffffff16815260200190815260200160002060009054906101000a900460ff16611d4e576040517f08c379a0000000000000000000000000000000000000000000000000000000008152600401611d45906137f7565b60405180910390fd5b60006002600088815260200190815260200160002060008373ffffffffffffffffffffffffffffffffffffffff1673ffffffffffffffffffffffffffffffffffffffff16815260200190815260200160002060006101000a81548160ff021916908315150217905550611dc18682612cc6565b6005600087815260200190815260200160002060008273ffffffffffffffffffffffffffffffffffffffff1673ffffffffffffffffffffffffffffffffffffffff16815260200190815260200160002060009054906101000a900460ff1615611e8e5760006005600088815260200190815260200160002060008373ffffffffffffffffffffffffffffffffffffffff1673ffffffffffffffffffffffffffffffffffffffff16815260200190815260200160002060006101000a81548160ff0219169083151502179055505b508080611e9a9061358c565b915050611c7a565b5060036000858152602001908152602001600020805490508160040160009054906101000a900460ff1660ff1611158015611ef1575060008160040160009054906101000a900460ff1660ff16115b611f30576040517f08c379a0000000000000000000000000000000000000000000000000000000008152600401611f2790613dcc565b60405180910390fd5b6000600460008681526020019081526020016000208190555060008160040160016101000a81548160ff021916908315150217905550837fd86a9c261db40b59e01ada44e46b8e47cfbbeb0e4451ae83de2ff684e0afc1248484604051611f98929190613e77565b60405180910390a250505050565b60016020528060005260406000206000915090508060000160009054906101000a900473ffffffffffffffffffffffffffffffffffffffff16908060010160009054906101000a900473ffffffffffffffffffffffffffffffffffffffff16908060010160149054906101000a900467ffffffffffffffff16908060020154908060030154908060040160009054906101000a900460ff16908060040160019054906101000a900460ff16908060040160029054906101000a900473ffffffffffffffffffffffffffffffffffffffff16905088565b600080600080600080600080600080600160008c815260200190815260200160002090508060000160009054906101000a900473ffffffffffffffffffffffffffffffffffffffff1699508060010160009054906101000a900473ffffffffffffffffffffffffffffffffffffffff1698508060010160149054906101000a900467ffffffffffffffff16975080600301549550806002015496508060040160009054906101000a900460ff169450600460008c81526020019081526020016000205493508060040160019054906101000a900460ff1692508060040160029054906101000a900473ffffffffffffffffffffffffffffffffffffffff169150509193959799909294969850565b6000600160008481526020019081526020016000209050600073ffffffffffffffffffffffffffffffffffffffff168160000160009054906101000a900473ffffffffffffffffffffffffffffffffffffffff1673ffffffffffffffffffffffffffffffffffffffff1603612234576040517f08c379a000000000000000000000000000000000000000000000000000000000815260040161222b9061378b565b60405180910390fd5b600073ffffffffffffffffffffffffffffffffffffffff168160040160029054906101000a900473ffffffffffffffffffffffffffffffffffffffff1673ffffffffffffffffffffffffffffffffffffffff16036122c7576040517f08c379a00000000000000000000000000000000000000000000000000000000081526004016122be90613ee7565b60405180910390fd5b6000821161230a576040517f08c379a000000000000000000000000000000000000000000000000000000000815260040161230190613f53565b60405180910390fd5b8060040160029054906101000a900473ffffffffffffffffffffffffffffffffffffffff1673ffffffffffffffffffffffffffffffffffffffff166323b872dd3330856040518463ffffffff1660e01b815260040161236b93929190613f73565b6020604051808303816000875af115801561238a573d6000803e3d6000fd5b505050506040513d601f19601f820116820180604052508101906123ae9190613ca3565b6123ed576040517f08c379a00000000000000000000000000000000000000000000000000000000081526004016123e490613ff6565b60405180910390fd5b8181600301600082825461240191906138ef565b925050819055503373ffffffffffffffffffffffffffffffffffffffff16837fad5b4075b97dbf75ad5c78f7afac948e4ae611c4fdf2825e2ce3c6c96925bf3b848460030154604051612455929190613cd0565b60405180910390a3505050565b6000600160008381526020019081526020016000209050600073ffffffffffffffffffffffffffffffffffffffff168160000160009054906101000a900473ffffffffffffffffffffffffffffffffffffffff1673ffffffffffffffffffffffffffffffffffffffff160361250c576040517f08c379a00000000000000000000000000000000000000000000000000000000081526004016125039061378b565b60405180910390fd5b600073ffffffffffffffffffffffffffffffffffffffff168160040160029054906101000a900473ffffffffffffffffffffffffffffffffffffffff1673ffffffffffffffffffffffffffffffffffffffff161461259f576040517f08c379a000000000000000000000000000000000000000000000000000000000815260040161259690614062565b60405180910390fd5b600034116125e2576040517f08c379a00000000000000000000000000000000000000000000000000000000081526004016125d990613f53565b60405180910390fd5b348160030160008282546125f691906138ef565b925050819055503373ffffffffffffffffffffffffffffffffffffffff16827fad5b4075b97dbf75ad5c78f7afac948e4ae611c4fdf2825e2ce3c6c96925bf3b34846003015460405161264a929190613cd0565b60405180910390a35050565b6060600360008381526020019081526020016000208054806020026020016040519081016040528092919081815260200182805480156126eb57602002820191906000526020600020905b8160009054906101000a900473ffffffffffffffffffffffffffffffffffffffff1673ffffffffffffffffffffffffffffffffffffffff16815260200190600101908083116126a1575b50505050509050919050565b60026020528160005260406000206020528060005260406000206000915091509054906101000a900460ff1681565b60006001600085815260200190815260200160002090508060000160009054906101000a900473ffffffffffffffffffffffffffffffffffffffff1673ffffffffffffffffffffffffffffffffffffffff163373ffffffffffffffffffffffffffffffffffffffff16146127cf576040517f08c379a00000000000000000000000000000000000000000000000000000000081526004016127c690613998565b60405180910390fd5b8060040160019054906101000a900460ff1615612821576040517f08c379a000000000000000000000000000000000000000000000000000000000815260040161281890613d45565b60405180910390fd5b60005b83839050811015612a59576000848483818110612844576128436135d4565b5b90506020020160208101906128599190613603565b9050600073ffffffffffffffffffffffffffffffffffffffff168173ffffffffffffffffffffffffffffffffffffffff16036128ca576040517f08c379a00000000000000000000000000000000000000000000000000000000081526004016128c19061367c565b60405180910390fd5b6002600087815260200190815260200160002060008273ffffffffffffffffffffffffffffffffffffffff1673ffffffffffffffffffffffffffffffffffffffff16815260200190815260200160002060009054906101000a900460ff1615612968576040517f08c379a000000000000000000000000000000000000000000000000000000000815260040161295f906136e8565b60405180910390fd5b60016002600088815260200190815260200160002060008373ffffffffffffffffffffffffffffffffffffffff1673ffffffffffffffffffffffffffffffffffffffff16815260200190815260200160002060006101000a81548160ff02191690831515021790555060036000878152602001908152602001600020819080600181540180825580915050600190039060005260206000200160009091909190916101000a81548173ffffffffffffffffffffffffffffffffffffffff021916908373ffffffffffffffffffffffffffffffffffffffff160217905550508080612a519061358c565b915050612824565b5060036000858152602001908152602001600020805490508160040160009054906101000a900460ff1660ff1611158015612aa8575060008160040160009054906101000a900460ff1660ff16115b612ae7576040517f08c379a0000000000000000000000000000000000000000000000000000000008152600401612ade90613dcc565b60405180910390fd5b612af084612b30565b837fdd86f5bb92b34bb8fd4bec475d714961b577cf0efc3b7b3fbf90787c76518b9e8484604051612b22929190613e77565b60405180910390a250505050565b6000600460008381526020019081526020016000208190555060006001600083815260200190815260200160002060040160016101000a81548160ff021916908315150217905550600060036000838152602001908152602001600020905060005b8180549050811015612cc1576000828281548110612bb357612bb26135d4565b5b9060005260206000200160009054906101000a900473ffffffffffffffffffffffffffffffffffffffff1690506005600085815260200190815260200160002060008273ffffffffffffffffffffffffffffffffffffffff1673ffffffffffffffffffffffffffffffffffffffff16815260200190815260200160002060009054906101000a900460ff1615612cad5760006005600086815260200190815260200160002060008373ffffffffffffffffffffffffffffffffffffffff1673ffffffffffffffffffffffffffffffffffffffff16815260200190815260200160002060006101000a81548160ff0219169083151502179055505b508080612cb99061358c565b915050612b92565b505050565b600060036000848152602001908152602001600020905060005b8180549050811015612e63578273ffffffffffffffffffffffffffffffffffffffff16828281548110612d1657612d156135d4565b5b9060005260206000200160009054906101000a900473ffffffffffffffffffffffffffffffffffffffff1673ffffffffffffffffffffffffffffffffffffffff1603612e50578160018380549050612d6e9190613b68565b81548110612d7f57612d7e6135d4565b5b9060005260206000200160009054906101000a900473ffffffffffffffffffffffffffffffffffffffff16828281548110612dbd57612dbc6135d4565b5b9060005260206000200160006101000a81548173ffffffffffffffffffffffffffffffffffffffff021916908373ffffffffffffffffffffffffffffffffffffffff16021790555081805480612e1657612e15614082565b5b6001900381819060005260206000200160006101000a81549073ffffffffffffffffffffffffffffffffffffffff02191690559055612e63565b8080612e5b9061358c565b915050612ce0565b50505050565b600080fd5b600080fd5b600067ffffffffffffffff82169050919050565b612e9081612e73565b8114612e9b57600080fd5b50565b600081359050612ead81612e87565b92915050565b6000819050919050565b612ec681612eb3565b8114612ed157600080fd5b50565b600081359050612ee381612ebd565b92915050565b600073ffffffffffffffffffffffffffffffffffffffff82169050919050565b6000612f1482612ee9565b9050919050565b612f2481612f09565b8114612f2f57600080fd5b50565b600081359050612f4181612f1b565b92915050565b600080fd5b600080fd5b600080fd5b60008083601f840112612f6c57612f6b612f47565b5b8235905067ffffffffffffffff811115612f8957612f88612f4c565b5b602083019150836020820283011115612fa557612fa4612f51565b5b9250929050565b600060ff82169050919050565b612fc281612fac565b8114612fcd57600080fd5b50565b600081359050612fdf81612fb9565b92915050565b600080600080600080600060c0888a03121561300457613003612e69565b5b60006130128a828b01612e9e565b97505060206130238a828b01612ed4565b96505060406130348a828b01612f32565b955050606088013567ffffffffffffffff81111561305557613054612e6e565b5b6130618a828b01612f56565b945094505060806130748a828b01612fd0565b92505060a06130858a828b01612f32565b91505092959891949750929550565b61309d81612eb3565b82525050565b60006020820190506130b86000830184613094565b92915050565b6000602082840312156130d4576130d3612e69565b5b60006130e284828501612ed4565b91505092915050565b6000806040838503121561310257613101612e69565b5b600061311085828601612ed4565b925050602061312185828601612f32565b9150509250929050565b60008115159050919050565b6131408161312b565b82525050565b600060208201905061315b6000830184613137565b92915050565b6000806040838503121561317857613177612e69565b5b600061318685828601612ed4565b925050602061319785828601612ed4565b9150509250929050565b600080604083850312156131b8576131b7612e69565b5b60006131c685828601612ed4565b92505060206131d785828601612fd0565b9150509250929050565b6131ea81612f09565b82525050565b600060208201905061320560008301846131e1565b92915050565b60008060006040848603121561322457613223612e69565b5b600061323286828701612ed4565b935050602084013567ffffffffffffffff81111561325357613252612e6e565b5b61325f86828701612f56565b92509250509250925092565b61327481612e73565b82525050565b61328381612fac565b82525050565b60006101008201905061329f600083018b6131e1565b6132ac602083018a6131e1565b6132b9604083018961326b565b6132c66060830188613094565b6132d36080830187613094565b6132e060a083018661327a565b6132ed60c0830185613137565b6132fa60e08301846131e1565b9998505050505050505050565b60006101208201905061331d600083018c6131e1565b61332a602083018b6131e1565b613337604083018a61326b565b6133446060830189613094565b6133516080830188613094565b61335e60a083018761327a565b61336b60c0830186613094565b61337860e0830185613137565b6133866101008301846131e1565b9a9950505050505050505050565b600081519050919050565b600082825260208201905092915050565b6000819050602082019050919050565b6133c981612f09565b82525050565b60006133db83836133c0565b60208301905092915050565b6000602082019050919050565b60006133ff82613394565b613409818561339f565b9350613414836133b0565b8060005b8381101561344557815161342c88826133cf565b9750613437836133e7565b925050600181019050613418565b5085935050505092915050565b6000602082019050818103600083015261346c81846133f4565b905092915050565b600082825260208201905092915050565b7f494e56414c49445f554e4c4f434b000000000000000000000000000000000000600082015250565b60006134bb600e83613474565b91506134c682613485565b602082019050919050565b600060208201905081810360008301526134ea816134ae565b9050919050565b7f494e56414c49445f5448524553484f4c44000000000000000000000000000000600082015250565b6000613527601183613474565b9150613532826134f1565b602082019050919050565b600060208201905081810360008301526135568161351a565b9050919050565b7f4e487b7100000000000000000000000000000000000000000000000000000000600052601160045260246000fd5b600061359782612eb3565b91507fffffffffffffffffffffffffffffffffffffffffffffffffffffffffffffffff82036135c9576135c861355d565b5b600182019050919050565b7f4e487b7100000000000000000000000000000000000000000000000000000000600052603260045260246000fd5b60006020828403121561361957613618612e69565b5b600061362784828501612f32565b91505092915050565b7f5a45524f5f475541524449414e00000000000000000000000000000000000000600082015250565b6000613666600d83613474565b915061367182613630565b602082019050919050565b6000602082019050818103600083015261369581613659565b9050919050565b7f4455505f475541524449414e0000000000000000000000000000000000000000600082015250565b60006136d2600c83613474565b91506136dd8261369c565b602082019050919050565b60006020820190508181036000830152613701816136c5565b9050919050565b600060608201905061371d600083018661326b565b61372a6020830185613094565b613737604083018461327a565b949350505050565b7f4e4f5f5641554c54000000000000000000000000000000000000000000000000600082015250565b6000613775600883613474565b91506137808261373f565b602082019050919050565b600060208201905081810360008301526137a481613768565b9050919050565b7f4e4f545f475541524449414e0000000000000000000000000000000000000000600082015250565b60006137e1600c83613474565b91506137ec826137ab565b602082019050919050565b60006020820190508181036000830152613810816137d4565b9050919050565b7f414c52454144595f415050524f56454400000000000000000000000000000000600082015250565b600061384d601083613474565b915061385882613817565b602082019050919050565b6000602082019050818103600083015261387c81613840565b9050919050565b7f414c52454144595f454e41424c45440000000000000000000000000000000000600082015250565b60006138b9600f83613474565b91506138c482613883565b602082019050919050565b600060208201905081810360008301526138e8816138ac565b9050919050565b60006138fa82612eb3565b915061390583612eb3565b925082820190508082111561391d5761391c61355d565b5b92915050565b60006040820190506139386000830185613094565b6139456020830184613137565b9392505050565b7f4e4f545f4f574e45520000000000000000000000000000000000000000000000600082015250565b6000613982600983613474565b915061398d8261394c565b602082019050919050565b600060208201905081810360008301526139b181613975565b9050919050565b7f5245454e5452414e435900000000000000000000000000000000000000000000600082015250565b60006139ee600a83613474565b91506139f9826139b8565b602082019050919050565b60006020820190508181036000830152613a1d816139e1565b9050919050565b7f4e4f5f42454e4546494349415259000000000000000000000000000000000000600082015250565b6000613a5a600e83613474565b9150613a6582613a24565b602082019050919050565b60006020820190508181036000830152613a8981613a4d565b9050919050565b7f4241445f414d4f554e5400000000000000000000000000000000000000000000600082015250565b6000613ac6600a83613474565b9150613ad182613a90565b602082019050919050565b60006020820190508181036000830152613af581613ab9565b9050919050565b7f4c4f434b45440000000000000000000000000000000000000000000000000000600082015250565b6000613b32600683613474565b9150613b3d82613afc565b602082019050919050565b60006020820190508181036000830152613b6181613b25565b9050919050565b6000613b7382612eb3565b9150613b7e83612eb3565b9250828203905081811115613b9657613b9561355d565b5b92915050565b600081905092915050565b50565b6000613bb7600083613b9c565b9150613bc282613ba7565b600082019050919050565b6000613bd882613baa565b9150819050919050565b7f5452414e534645525f4641494c00000000000000000000000000000000000000600082015250565b6000613c18600d83613474565b9150613c2382613be2565b602082019050919050565b60006020820190508181036000830152613c4781613c0b565b9050919050565b6000604082019050613c6360008301856131e1565b613c706020830184613094565b9392505050565b613c808161312b565b8114613c8b57600080fd5b50565b600081519050613c9d81613c77565b92915050565b600060208284031215613cb957613cb8612e69565b5b6000613cc784828501613c8e565b91505092915050565b6000604082019050613ce56000830185613094565b613cf26020830184613094565b9392505050565b7f4541524c595f454e41424c454400000000000000000000000000000000000000600082015250565b6000613d2f600d83613474565b9150613d3a82613cf9565b602082019050919050565b60006020820190508181036000830152613d5e81613d22565b9050919050565b6000602082019050613d7a600083018461327a565b92915050565b7f4241445f5448524553484f4c4400000000000000000000000000000000000000600082015250565b6000613db6600d83613474565b9150613dc182613d80565b602082019050919050565b60006020820190508181036000830152613de581613da9565b9050919050565b6000819050919050565b6000613e056020840184612f32565b905092915050565b6000602082019050919050565b6000613e26838561339f565b9350613e3182613dec565b8060005b85811015613e6a57613e478284613df6565b613e5188826133cf565b9750613e5c83613e0d565b925050600181019050613e35565b5085925050509392505050565b60006020820190508181036000830152613e92818486613e1a565b90509392505050565b7f4e41544956455f5641554c540000000000000000000000000000000000000000600082015250565b6000613ed1600c83613474565b9150613edc82613e9b565b602082019050919050565b60006020820190508181036000830152613f0081613ec4565b9050919050565b7f4e4f5f56414c5545000000000000000000000000000000000000000000000000600082015250565b6000613f3d600883613474565b9150613f4882613f07565b602082019050919050565b60006020820190508181036000830152613f6c81613f30565b9050919050565b6000606082019050613f8860008301866131e1565b613f9560208301856131e1565b613fa26040830184613094565b949350505050565b7f5452414e534645525f46524f4d5f4641494c0000000000000000000000000000600082015250565b6000613fe0601283613474565b9150613feb82613faa565b602082019050919050565b6000602082019050818103600083015261400f81613fd3565b9050919050565b7f544f4b454e5f5641554c54000000000000000000000000000000000000000000600082015250565b600061404c600b83613474565b915061405782614016565b602082019050919050565b6000602082019050818103600083015261407b8161403f565b9050919050565b7f4e487b7100000000000000000000000000000000000000000000000000000000600052603160045260246000fdfea2646970667358221220f8c0b28c55d911f389c4bd1cc484a0839bb71bc91d2fb0f09c92fa8a7acb6ac764736f6c63430008140033",
  "linkReferences": {},
  "deployedLinkReferences": {}
}