{
  "_format": "hh-sol-artifact-1",
  "contractName": "CitadelVault",
  "sourceName": "contracts/CitadelVault.sol",
  "abi": [
    {
      "inputs": [],
      "stateMutability": "nonpayable",
      "type": "constructor"
    },
    {
      "anonymous": false,
      "inputs": [
        {
          "indexed": true,
          "internalType": "address",
          "name": "admin",
          "type": "address"
        }
      ],
      "name": "AdminSet",
      "type": "event"
    },
    {
      "anonymous": false,
      "inputs": [
        {
          "indexed": true,
          "internalType": "uint256",
          "name": "id",
          "type": "uint256"
        },
        {
          "indexed": true,
          "internalType": "address",
          "name": "beneficiary",
          "type": "address"
        }
      ],
      "name": "BeneficiarySet",
      "type": "event"
    },
    {
      "anonymous": false,
      "inputs": [
        {
          "indexed": true,
          "internalType": "uint256",
          "name": "id",
          "type": "uint256"
        },
        {
          "indexed": true,
          "internalType": "address",
          "name": "from",
          "type": "address"
        },
        {
          "indexed": false,
          "internalType": "uint256",
          "name": "amount",
          "type": "uint256"
        },
        {
          "indexed": false,
          "internalType": "uint256",
          "name": "newBalance",
          "type": "uint256"
        }
      ],
      "name": "Deposited",
      "type": "event"
    },
    {
      "anonymous": false,
      "inputs": [
        {
          "indexed": true,
          "internalType": "uint256",
          "name": "id",
          "type": "uint256"
        },
        {
          "indexed": true,
          "internalType": "address",
          "name": "guardian",
          "type": "address"
        },
        {
          "indexed": false,
          "internalType": "uint256",
          "name": "approvals",
          "type": "uint256"
        },
        {
          "indexed": false,
          "internalType": "bool",
          "name": "enabled",
          "type": "bool"
        }
      ],
      "name": "EarlyApproval",
      "type": "event"
    },
    {
      "anonymous": false,
      "inputs": [
        {
          "indexed": true,
          "internalType": "uint256",
          "name": "id",
          "type": "uint256"
        },
        {
          "indexed": false,
          "internalType": "address[]",
          "name": "guardians",
          "type": "address[]"
        }
      ],
      "name": "GuardiansAdded",
      "type": "event"
    },
    {
      "anonymous": false,
      "inputs": [
        {
          "indexed": true,
          "internalType": "uint256",
          "name": "id",
          "type": "uint256"
        },
        {
          "indexed": false,
          "internalType": "address[]",
          "name": "guardians",
          "type": "address[]"
        }
      ],
      "name": "GuardiansRemoved",
      "type": "event"
    },
    {
      "anonymous": false,
      "inputs": [
        {
          "indexed": false,
          "internalType": "bool",
          "name": "paused",
          "type": "bool"
        }
      ],
      "name": "Paused",
      "type": "event"
    },
    {
      "anonymous": false,
      "inputs": [
        {
          "indexed": true,
          "internalType": "uint256",
          "name": "id",
          "type": "uint256"
        },
        {
          "indexed": false,
          "internalType": "uint8",
          "name": "threshold",
          "type": "uint8"
        }
      ],
      "name": "ThresholdUpdated",
      "type": "event"
    },
    {
      "anonymous": false,
      "inputs": [
        {
          "indexed": true,
          "internalType": "uint256",
          "name": "id",
          "type": "uint256"
        },
        {
          "indexed": true,
          "internalType": "address",
          "name": "owner",
          "type": "address"
        },
        {
          "indexed": false,
          "internalType": "uint64",
          "name": "unlockAt",
          "type": "uint64"
        },
        {
          "indexed": false,
          "internalType": "uint256",
          "name": "target",
          "type": "uint256"
        },
        {
          "indexed": false,
          "internalType": "uint8",
          "name": "threshold",
          "type": "uint8"
        }
      ],
      "name": "VaultCreated",
      "type": "event"
    },
    {
      "anonymous": false,
      "inputs": [
        {
          "indexed": true,
          "internalType": "uint256",
          "name": "id",
          "type": "uint256"
        },
        {
          "indexed": true,
          "internalType": "address",
          "name": "to",
          "type": "address"
        },
        {
          "indexed": false,
          "internalType": "uint256",
          "name": "amount",
          "type": "uint256"
        },
        {
          "indexed": false,
          "internalType": "uint256",
          "name": "remaining",
          "type": "uint256"
        }
      ],
      "name": "Withdrawn",
      "type": "event"
    },
    {
      "inputs": [
        {
          "internalType": "uint256",
          "name": "id",
          "type": "uint256"
        },
        {
          "internalType": "address[]",
          "name": "guardians",
          "type": "address[]"
        }
      ],
      "name": "addGuardians",
      "outputs": [],
      "stateMutability": "nonpayable",
      "type": "function"
    },
    {
      "inputs": [],
      "name": "admin",
      "outputs": [
        {
          "internalType": "address",
          "name": "",
          "type": "address"
        }
      ],
      "stateMutability": "view",
      "type": "function"
    },
    {
      "inputs": [
        {
          "internalType": "uint256",
          "name": "",
          "type": "uint256"
        }
      ],
      "name": "approvalCount",
      "outputs": [
        {
          "internalType": "uint256",
          "name": "",
          "type": "uint256"
        }
      ],
      "stateMutability": "view",
      "type": "function"
    },
    {
      "inputs": [
        {
          "internalType": "uint256",
          "name": "id",
          "type": "uint256"
        }
      ],
      "name": "approveEarly",
      "outputs": [],
      "stateMutability": "nonpayable",
      "type": "function"
    },
    {
      "inputs": [
        {
          "internalType": "uint64",
          "name": "unlockAt",
          "type": "uint64"
        },
        {
          "internalType": "uint256",
          "name": "target",
          "type": "uint256"
        },
        {
          "internalType": "address",
          "name": "beneficiary",
          "type": "address"
        },
        {
          "internalType": "address[]",
          "name": "guardians",
          "type": "address[]"
        },
        {
          "internalType": "uint8",
          "name": "threshold",
          "type": "uint8"
        },
        {
          "internalType": "address",
          "name": "token",
          "type": "address"
        }
      ],
      "name": "createVault",
      "outputs": [
        {
          "internalType": "uint256",
          "name": "id",
          "type": "uint256"
        }
      ],
      "stateMutability": "nonpayable",
      "type": "function"
    },
    {
      "inputs": [
        {
          "internalType": "uint256",
          "name": "id",
          "type": "uint256"
        }
      ],
      "name": "deposit",
      "outputs": [],
      "stateMutability": "payable",
      "type": "function"
    },
    {
      "inputs": [
        {
          "internalType": "uint256",
          "name": "id",
          "type": "uint256"
        },
        {
          "internalType": "uint256",
          "name": "amount",
          "type": "uint256"
        }
      ],
      "name": "depositToken",
      "outputs": [],
      "stateMutability": "nonpayable",
      "type": "function"
    },
    {
      "inputs": [
        {
          "internalType": "uint256",
          "name": "id",
          "type": "uint256"
        }
      ],
      "name": "getGuardians",
      "outputs": [
        {
          "internalType": "address[]",
          "name": "list",
          "type": "address[]"
        }
      ],
      "stateMutability": "view",
      "type": "function"
    },
    {
      "inputs": [
        {
          "internalType": "uint256",
          "name": "id",
          "type": "uint256"
        }
      ],
      "name": "getVault",
      "outputs": [
        {
          "internalType": "address",
          "name": "owner",
          "type": "address"
        },
        {
          "internalType": "address",
          "name": "beneficiary",
          "type": "address"
        },
        {
          "internalType": "uint64",
          "name": "unlockAt",
          "type": "uint64"
        },
        {
          "internalType": "uint256",
          "name": "target",
          "type": "uint256"
        },
        {
          "internalType": "uint256",
          "name": "balance",
          "type": "uint256"
        },
        {
          "internalType": "uint8",
          "name": "threshold",
          "type": "uint8"
        },
        {
          "internalType": "uint256",
          "name": "approvals",
          "type": "uint256"
        },
        {
          "internalType": "bool",
          "name": "earlyEnabled",
          "type": "bool"
        },
        {
          "internalType": "address",
          "name": "token",
          "type": "address"
        }
      ],
      "stateMutability": "view",
      "type": "function"
    },
    {
      "inputs": [
        {
          "internalType": "uint256",
          "name": "",
          "type": "uint256"
        },
        {
          "internalType": "uint256",
          "name": "",
          "type": "uint256"
        }
      ],
      "name": "guardianList",
      "outputs": [
        {
          "internalType": "address",
          "name": "",
          "type": "address"
        }
      ],
      "stateMutability": "view",
      "type": "function"
    },
    {
      "inputs": [
        {
          "internalType": "uint256",
          "name": "",
          "type": "uint256"
        },
        {
          "internalType": "address",
          "name": "",
          "type": "address"
        }
      ],
      "name": "hasApproved",
      "outputs": [
        {
          "internalType": "bool",
          "name": "",
          "type": "bool"
        }
      ],
      "stateMutability": "view",
      "type": "function"
    },
    {
      "inputs": [
        {
          "internalType": "uint256",
          "name": "",
          "type": "uint256"
        },
        {
          "internalType": "address",
          "name": "",
          "type": "address"
        }
      ],
      "name": "isGuardian",
      "outputs": [
        {
          "internalType": "bool",
          "name": "",
          "type": "bool"
        }
      ],
      "stateMutability": "view",
      "type": "function"
    },
    {
      "inputs": [],
      "name": "nextVaultId",
      "outputs": [
        {
          "internalType": "uint256",
          "name": "",
          "type": "uint256"
        }
      ],
      "stateMutability": "view",
      "type": "function"
    },
    {
      "inputs": [],
      "name": "pause",
      "outputs": [],
      "stateMutability": "nonpayable",
      "type": "function"
    },
    {
      "inputs": [],
      "name": "paused",
      "outputs": [
        {
          "internalType": "bool",
          "name": "",
          "type": "bool"
        }
      ],
      "stateMutability": "view",
      "type": "function"
    },
    {
      "inputs": [
        {
          "internalType": "uint256",
          "name": "id",
          "type": "uint256"
        },
        {
          "internalType": "address[]",
          "name": "guardians",
          "type": "address[]"
        }
      ],
      "name": "removeGuardians",
      "outputs": [],
      "stateMutability": "nonpayable",
      "type": "function"
    },
    {
      "inputs": [
        {
          "internalType": "address",
          "name": "a",
          "type": "address"
        }
      ],
      "name": "setAdmin",
      "outputs": [],
      "stateMutability": "nonpayable",
      "type": "function"
    },
    {
      "inputs": [
        {
          "internalType": "uint256",
          "name": "id",
          "type": "uint256"
        },
        {
          "internalType": "address",
          "name": "beneficiary",
          "type": "address"
        }
      ],
      "name": "setBeneficiary",
      "outputs": [],
      "stateMutability": "nonpayable",
      "type": "function"
    },
    {
      "inputs": [
        {
          "internalType": "uint256",
          "name": "id",
          "type": "uint256"
        },
        {
          "internalType": "uint8",
          "name": "threshold",
          "type": "uint8"
        }
      ],
      "name": "setThreshold",
      "outputs": [],
      "stateMutability": "nonpayable",
      "type": "function"
    },
    {
      "inputs": [],
      "name": "unpause",
      "outputs": [],
      "stateMutability": "nonpayable",
      "type": "function"
    },
    {
      "inputs": [
        {
          "internalType": "uint256",
          "name": "",
          "type": "uint256"
        }
      ],
      "name": "vaults",
      "outputs": [
        {
          "internalType": "address",
          "name": "owner",
          "type": "address"
        },
        {
          "internalType": "address",
          "name": "beneficiary",
          "type": "address"
        },
        {
          "internalType": "uint64",
          "name": "unlockAt",
          "type": "uint64"
        },
        {
          "internalType": "uint256",
          "name": "target",
          "type": "uint256"
        },
        {
          "internalType": "uint256",
          "name": "balance",
          "type": "uint256"
        },
        {
          "internalType": "uint8",
          "name": "threshold",
          "type": "uint8"
        },
        {
          "internalType": "bool",
          "name": "earlyEnabled",
          "type": "bool"
        },
        {
          "internalType": "address",
          "name": "token",
          "type": "address"
        }
      ],
      "stateMutability": "view",
      "type": "function"
    },
    {
      "inputs": [
        {
          "internalType": "uint256",
          "name": "id",
          "type": "uint256"
        },
        {
          "internalType": "uint256",
          "name": "amount",
          "type": "uint256"
        }
      ],
      "name": "withdrawOwner",
      "outputs": [],
      "stateMutability": "nonpayable",
      "type": "function"
    },
    {
      "inputs": [
        {
          "internalType": "uint256",
          "name": "id",
          "type": "uint256"
        },
        {
          "internalType": "uint256",
          "name": "amount",
          "type": "uint256"
        }
      ],
      "name": "withdrawToBeneficiary",
      "outputs": [],
      "stateMutability": "nonpayable",
      "type": "function"
    }
  ],
  "bytecode": "0x608060405234801561001057600080fd5b5033600160006101000a81548173ffffffffffffffffffffffffffffffffffffffff021916908373ffffffffffffffffffffffffffffffffffffffff160217905550600160009054906101000a900473ffffffffffffffffffffffffffffffffffffffff1673ffffffffffffffffffffffffffffffffffffffff167f8fe72c3e0020beb3234e76ae6676fa576fbfcae600af1c4fea44784cf0db329c60405160405180910390a26149b7806100c66000396000f3fe6080604052600436106101405760003560e01c806374294144116100b65780639d2d04d11161006f5780639d2d04d114610465578063b6b55f251461048e578063c3dafbf0146104aa578063c773d96d146104e7578063dff4141514610524578063f851a4401461054d57610140565b806374294144146103365780637ce129541461035f5780637f8337be1461039c5780638456cb59146103c55780638c64ea4a146103dc5780639403b6341461042057610140565b80633b1c3f51116101085780633b1c3f511461023c5780633f4ba83a146102655780634082b56a1461027c57806340ad01ea146102a55780635c975abb146102e2578063704b6c021461030d57610140565b8063056f179e1461014557806307d652191461018257806312ac1763146101ab5780631c846d59146101d65780632358d5a8146101ff575b600080fd5b34801561015157600080fd5b5061016c60048036038101906101679190613771565b610578565b604051610179919061382f565b60405180910390f35b34801561018e57600080fd5b506101a960048036038101906101a4919061384a565b610a4d565b005b3480156101b757600080fd5b506101c0610e2d565b6040516101cd919061382f565b60405180910390f35b3480156101e257600080fd5b506101fd60048036038101906101f89190613877565b610e33565b005b34801561020b57600080fd5b5061022660048036038101906102219190613877565b610fb8565b60405161023391906138d2565b60405180910390f35b34801561024857600080fd5b50610263600480360381019061025e91906138ed565b610fe7565b005b34801561027157600080fd5b5061027a611611565b005b34801561028857600080fd5b506102a3600480360381019061029e91906138ed565b6116f6565b005b3480156102b157600080fd5b506102cc60048036038101906102c7919061384a565b611ca6565b6040516102d9919061382f565b60405180910390f35b3480156102ee57600080fd5b506102f7611cbe565b60405161030491906138d2565b60405180910390f35b34801561031957600080fd5b50610334600480360381019061032f919061392d565b611cd1565b005b34801561034257600080fd5b5061035d6004803603810190610358919061395a565b611e57565b005b34801561036b57600080fd5b50610386600480360381019061038191906138ed565b612070565b60405161039391906139a9565b60405180910390f35b3480156103a857600080fd5b506103c360048036038101906103be91906139c4565b6120be565b005b3480156103d157600080fd5b506103da612538565b005b3480156103e857600080fd5b5061040360048036038101906103fe919061384a565b61261c565b604051610417989796959493929190613a42565b60405180910390f35b34801561042c57600080fd5b506104476004803603810190610442919061384a565b6126f2565b60405161045c99989796959493929190613ac0565b60405180910390f35b34801561047157600080fd5b5061048c600480360381019061048791906138ed565b612800565b005b6104a860048036038101906104a3919061384a565b612b28565b005b3480156104b657600080fd5b506104d160048036038101906104cc919061384a565b612d6c565b6040516104de9190613c0b565b60405180910390f35b3480156104f357600080fd5b5061050e60048036038101906105099190613877565b612e0d565b60405161051b91906138d2565b60405180910390f35b34801561053057600080fd5b5061054b600480360381019061054691906139c4565b612e3c565b005b34801561055957600080fd5b50610562613296565b60405161056f91906139a9565b60405180910390f35b6000600160149054906101000a900460ff16156105ca576040517f08c379a00000000000000000000000000000000000000000000000000000000081526004016105c190613c8a565b60405180910390fd5b428867ffffffffffffffff1611610616576040517f08c379a000000000000000000000000000000000000000000000000000000000815260040161060d90613cf6565b60405180910390fd5b60008360ff1611801561062f5750848490508360ff1611155b61066e576040517f08c379a000000000000000000000000000000000000000000000000000000000815260040161066590613d62565b60405180910390fd5b600080815461067c90613db1565b91905081905590506000600260008381526020019081526020016000209050338160000160006101000a81548173ffffffffffffffffffffffffffffffffffffffff021916908373ffffffffffffffffffffffffffffffffffffffff160217905550868160010160006101000a81548173ffffffffffffffffffffffffffffffffffffffff021916908373ffffffffffffffffffffffffffffffffffffffff160217905550888160010160146101000a81548167ffffffffffffffff021916908367ffffffffffffffff160217905550878160020181905550838160040160006101000a81548160ff021916908360ff160217905550828160040160026101000a81548173ffffffffffffffffffffffffffffffffffffffff021916908373ffffffffffffffffffffffffffffffffffffffff16021790555060005b868690508110156109ed5760008787838181106107d8576107d7613df9565b5b90506020020160208101906107ed919061392d565b9050600073ffffffffffffffffffffffffffffffffffffffff168173ffffffffffffffffffffffffffffffffffffffff160361085e576040517f08c379a000000000000000000000000000000000000000000000000000000000815260040161085590613e74565b60405180910390fd5b6003600085815260200190815260200160002060008273ffffffffffffffffffffffffffffffffffffffff1673ffffffffffffffffffffffffffffffffffffffff16815260200190815260200160002060009054906101000a900460ff16156108fc576040517f08c379a00000000000000000000000000000000000000000000000000000000081526004016108f390613ee0565b60405180910390fd5b60016003600086815260200190815260200160002060008373ffffffffffffffffffffffffffffffffffffffff1673ffffffffffffffffffffffffffffffffffffffff16815260200190815260200160002060006101000a81548160ff02191690831515021790555060046000858152602001908152602001600020819080600181540180825580915050600190039060005260206000200160009091909190916101000a81548173ffffffffffffffffffffffffffffffffffffffff021916908373ffffffffffffffffffffffffffffffffffffffff1602179055505080806109e590613db1565b9150506107b8565b503373ffffffffffffffffffffffffffffffffffffffff16827f504ffb1781d4f0d41aa9c77ace4866896b260222a7d0d069f2f6af1b1f0737d08b8b88604051610a3993929190613f00565b60405180910390a350979650505050505050565b600160149054906101000a900460ff1615610a9d576040517f08c379a0000000000000000000000000000000000000000000000000000000008152600401610a9490613c8a565b60405180910390fd5b6000600260008381526020019081526020016000209050600073ffffffffffffffffffffffffffffffffffffffff168160000160009054906101000a900473ffffffffffffffffffffffffffffffffffffffff1673ffffffffffffffffffffffffffffffffffffffff1603610b47576040517f08c379a0000000000000000000000000000000000000000000000000000000008152600401610b3e90613f83565b60405180910390fd5b6003600083815260200190815260200160002060003373ffffffffffffffffffffffffffffffffffffffff1673ffffffffffffffffffffffffffffffffffffffff16815260200190815260200160002060009054906101000a900460ff16610be4576040517f08c379a0000000000000000000000000000000000000000000000000000000008152600401610bdb90613fef565b60405180910390fd5b6006600083815260200190815260200160002060003373ffffffffffffffffffffffffffffffffffffffff1673ffffffffffffffffffffffffffffffffffffffff16815260200190815260200160002060009054906101000a900460ff1615610c82576040517f08c379a0000000000000000000000000000000000000000000000000000000008152600401610c799061405b565b60405180910390fd5b8060040160019054906101000a900460ff1615610cd4576040517f08c379a0000000000000000000000000000000000000000000000000000000008152600401610ccb906140c7565b60405180910390fd5b60016006600084815260200190815260200160002060003373ffffffffffffffffffffffffffffffffffffffff1673ffffffffffffffffffffffffffffffffffffffff16815260200190815260200160002060006101000a81548160ff0219169083151502179055506001600560008481526020019081526020016000206000828254610d6191906140e7565b925050819055508060040160009054906101000a900460ff1660ff16600560008481526020019081526020016000205410610db45760018160040160016101000a81548160ff0219169083151502179055505b3373ffffffffffffffffffffffffffffffffffffffff16827f11dd7dc25d2483340c919c44c7e7d796c67c212f755bac71ed874acca31903b160056000868152602001908152602001600020548460040160019054906101000a900460ff16604051610e2192919061411b565b60405180910390a35050565b60005481565b600160149054906101000a900460ff1615610e83576040517f08c379a0000000000000000000000000000000000000000000000000000000008152600401610e7a90613c8a565b60405180910390fd5b60006002600084815260200190815260200160002090508060000160009054906101000a900473ffffffffffffffffffffffffffffffffffffffff1673ffffffffffffffffffffffffffffffffffffffff163373ffffffffffffffffffffffffffffffffffffffff1614610f2c576040517f08c379a0000000000000000000000000000000000000000000000000000000008152600401610f2390614190565b60405180910390fd5b818160010160006101000a81548173ffffffffffffffffffffffffffffffffffffffff021916908373ffffffffffffffffffffffffffffffffffffffff1602179055508173ffffffffffffffffffffffffffffffffffffffff16837fc86a110aa1766ba4b859c168a83f6cff38cd5cec05052a5eba292e4604ea258960405160405180910390a3505050565b60066020528160005260406000206020528060005260406000206000915091509054906101000a900460ff1681565b600760009054906101000a900460ff1615611037576040517f08c379a000000000000000000000000000000000000000000000000000000000815260040161102e906141fc565b60405180910390fd5b6001600760006101000a81548160ff021916908315150217905550600160149054906101000a900460ff16156110a2576040517f08c379a000000000000000000000000000000000000000000000000000000000815260040161109990613c8a565b60405180910390fd5b60006002600084815260200190815260200160002090508060000160009054906101000a900473ffffffffffffffffffffffffffffffffffffffff1673ffffffffffffffffffffffffffffffffffffffff163373ffffffffffffffffffffffffffffffffffffffff161461114b576040517f08c379a000000000000000000000000000000000000000000000000000000000815260040161114290614190565b60405180910390fd5b600073ffffffffffffffffffffffffffffffffffffffff168160000160009054906101000a900473ffffffffffffffffffffffffffffffffffffffff1673ffffffffffffffffffffffffffffffffffffffff16036111de576040517f08c379a00000000000000000000000000000000000000000000000000000000081526004016111d590613f83565b60405180910390fd5b600073ffffffffffffffffffffffffffffffffffffffff168160010160009054906101000a900473ffffffffffffffffffffffffffffffffffffffff1673ffffffffffffffffffffffffffffffffffffffff1603611271576040517f08c379a000000000000000000000000000000000000000000000000000000000815260040161126890614268565b60405180910390fd5b600082118015611285575080600301548211155b6112c4576040517f08c379a00000000000000000000000000000000000000000000000000000000081526004016112bb906142d4565b60405180910390fd5b8060010160149054906101000a900467ffffffffffffffff1667ffffffffffffffff16421015611329576040517f08c379a000000000000000000000000000000000000000000000000000000000815260040161132090614340565b60405180910390fd5b8181600301600082825461133d9190614360565b92505081905550600073ffffffffffffffffffffffffffffffffffffffff168160040160029054906101000a900473ffffffffffffffffffffffffffffffffffffffff1673ffffffffffffffffffffffffffffffffffffffff16036114725760008160010160009054906101000a900473ffffffffffffffffffffffffffffffffffffffff1673ffffffffffffffffffffffffffffffffffffffff16836040516113e6906143c5565b60006040518083038185875af1925050503d8060008114611423576040519150601f19603f3d011682016040523d82523d6000602084013e611428565b606091505b505090508061146c576040517f08c379a000000000000000000000000000000000000000000000000000000000815260040161146390614426565b60405180910390fd5b50611578565b8060040160029054906101000a900473ffffffffffffffffffffffffffffffffffffffff1673ffffffffffffffffffffffffffffffffffffffff1663a9059cbb8260010160009054906101000a900473ffffffffffffffffffffffffffffffffffffffff16846040518363ffffffff1660e01b81526004016114f5929190614446565b6020604051808303816000875af1158015611514573d6000803e3d6000fd5b505050506040513d601f19601f82011682018060405250810190611538919061449b565b611577576040517f08c379a000000000000000000000000000000000000000000000000000000000815260040161156e90614426565b60405180910390fd5b5b8060010160009054906101000a900473ffffffffffffffffffffffffffffffffffffffff1673ffffffffffffffffffffffffffffffffffffffff16837f1c84cc0f96161bdafea718a9094dd21c21d1fb2f9ca2ebb9bd4e39918efbaace8484600301546040516115e99291906144c8565b60405180910390a3506000600760006101000a81548160ff0219169083151502179055505050565b600160009054906101000a900473ffffffffffffffffffffffffffffffffffffffff1673ffffffffffffffffffffffffffffffffffffffff163373ffffffffffffffffffffffffffffffffffffffff16146116a1576040517f08c379a00000000000000000000000000000000000000000000000000000000081526004016116989061453d565b60405180910390fd5b6000600160146101000a81548160ff0219169083151502179055507f0e2fb031ee032dc02d8011dc50b816eb450cf856abd8261680dac74f72165bd260006040516116ec91906138d2565b60405180910390a1565b600760009054906101000a900460ff1615611746576040517f08c379a000000000000000000000000000000000000000000000000000000000815260040161173d906141fc565b60405180910390fd5b6001600760006101000a81548160ff021916908315150217905550600160149054906101000a900460ff16156117b1576040517f08c379a00000000000000000000000000000000000000000000000000000000081526004016117a890613c8a565b60405180910390fd5b60006002600084815260200190815260200160002090508060000160009054906101000a900473ffffffffffffffffffffffffffffffffffffffff1673ffffffffffffffffffffffffffffffffffffffff163373ffffffffffffffffffffffffffffffffffffffff161461185a576040517f08c379a000000000000000000000000000000000000000000000000000000000815260040161185190614190565b60405180910390fd5b600073ffffffffffffffffffffffffffffffffffffffff168160000160009054906101000a900473ffffffffffffffffffffffffffffffffffffffff1673ffffffffffffffffffffffffffffffffffffffff16036118ed576040517f08c379a00000000000000000000000000000000000000000000000000000000081526004016118e490613f83565b60405180910390fd5b600082118015611901575080600301548211155b611940576040517f08c379a0000000000000000000000000000000000000000000000000000000008152600401611937906142d4565b60405180910390fd5b8060010160149054906101000a900467ffffffffffffffff1667ffffffffffffffff164210158061197f57508060040160019054906101000a900460ff165b6119be576040517f08c379a00000000000000000000000000000000000000000000000000000000081526004016119b590614340565b60405180910390fd5b818160030160008282546119d29190614360565b92505081905550600073ffffffffffffffffffffffffffffffffffffffff168160040160029054906101000a900473ffffffffffffffffffffffffffffffffffffffff1673ffffffffffffffffffffffffffffffffffffffff1603611b075760008160000160009054906101000a900473ffffffffffffffffffffffffffffffffffffffff1673ffffffffffffffffffffffffffffffffffffffff1683604051611a7b906143c5565b60006040518083038185875af1925050503d8060008114611ab8576040519150601f19603f3d011682016040523d82523d6000602084013e611abd565b606091505b5050905080611b01576040517f08c379a0000000000000000000000000000000000000000000000000000000008152600401611af890614426565b60405180910390fd5b50611c0d565b8060040160029054906101000a900473ffffffffffffffffffffffffffffffffffffffff1673ffffffffffffffffffffffffffffffffffffffff1663a9059cbb8260000160009054906101000a900473ffffffffffffffffffffffffffffffffffffffff16846040518363ffffffff1660e01b8152600401611b8a929190614446565b6020604051808303816000875af1158015611ba9573d6000803e3d6000fd5b505050506040513d601f19601f82011682018060405250810190611bcd919061449b565b611c0c576040517f08c379a0000000000000000000000000000000000000000000000000000000008152600401611c0390614426565b60405180910390fd5b5b8060000160009054906101000a900473ffffffffffffffffffffffffffffffffffffffff1673ffffffffffffffffffffffffffffffffffffffff16837f1c84cc0f96161bdafea718a9094dd21c21d1fb2f9ca2ebb9bd4e39918efbaace848460030154604051611c7e9291906144c8565b60405180910390a3506000600760006101000a81548160ff0219169083151502179055505050565b60056020528060005260406000206000915090505481565b600160149054906101000a900460ff1681565b600160009054906101000a900473ffffffffffffffffffffffffffffffffffffffff1673ffffffffffffffffffffffffffffffffffffffff163373ffffffffffffffffffffffffffffffffffffffff1614611d61576040517f08c379a0000000000000000000000000000000000000000000000000000000008152600401611d589061453d565b60405180910390fd5b600073ffffffffffffffffffffffffffffffffffffffff168173ffffffffffffffffffffffffffffffffffffffff1603611dd0576040517f08c379a0000000000000000000000000000000000000000000000000000000008152600401611dc7906145a9565b60405180910390fd5b80600160006101000a81548173ffffffffffffffffffffffffffffffffffffffff021916908373ffffffffffffffffffffffffffffffffffffffff1602179055508073ffffffffffffffffffffffffffffffffffffffff167f8fe72c3e0020beb3234e76ae6676fa576fbfcae600af1c4fea44784cf0db329c60405160405180910390a250565b600160149054906101000a900460ff1615611ea7576040517f08c379a0000000000000000000000000000000000000000000000000000000008152600401611e9e90613c8a565b60405180910390fd5b60006002600084815260200190815260200160002090508060000160009054906101000a900473ffffffffffffffffffffffffffffffffffffffff1673ffffffffffffffffffffffffffffffffffffffff163373ffffffffffffffffffffffffffffffffffffffff1614611f50576040517f08c379a0000000000000000000000000000000000000000000000000000000008152600401611f4790614190565b60405180910390fd5b8060040160019054906101000a900460ff1615611fa2576040517f08c379a0000000000000000000000000000000000000000000000000000000008152600401611f9990614615565b60405180910390fd5b60008260ff16118015611fce575060046000848152602001908152602001600020805490508260ff1611155b61200d576040517f08c379a000000000000000000000000000000000000000000000000000000000815260040161200490613d62565b60405180910390fd5b818160040160006101000a81548160ff021916908360ff160217905550612033836132bc565b827fea90cd86d440427f0368147e689d34b7d625047c7f18e3bb8929793f61151074836040516120639190614635565b60405180910390a2505050565b6004602052816000526040600020818154811061208c57600080fd5b906000526020600020016000915091509054906101000a900473ffffffffffffffffffffffffffffffffffffffff1681565b600160149054906101000a900460ff161561210e576040517f08c379a000000000000000000000000000000000000000000000000000000000815260040161210590613c8a565b60405180910390fd5b60006002600085815260200190815260200160002090508060000160009054906101000a900473ffffffffffffffffffffffffffffffffffffffff1673ffffffffffffffffffffffffffffffffffffffff163373ffffffffffffffffffffffffffffffffffffffff16146121b7576040517f08c379a00000000000000000000000000000000000000000000000000000000081526004016121ae90614190565b60405180910390fd5b8060040160019054906101000a900460ff1615612209576040517f08c379a000000000000000000000000000000000000000000000000000000000815260040161220090614615565b60405180910390fd5b60005b8383905081101561243457600084848381811061222c5761222b613df9565b5b9050602002016020810190612241919061392d565b90506003600087815260200190815260200160002060008273ffffffffffffffffffffffffffffffffffffffff1673ffffffffffffffffffffffffffffffffffffffff16815260200190815260200160002060009054906101000a900460ff166122e0576040517f08c379a00000000000000000000000000000000000000000000000000000000081526004016122d790613fef565b60405180910390fd5b60006003600088815260200190815260200160002060008373ffffffffffffffffffffffffffffffffffffffff1673ffffffffffffffffffffffffffffffffffffffff16815260200190815260200160002060006101000a81548160ff0219169083151502179055506123538682613452565b6006600087815260200190815260200160002060008273ffffffffffffffffffffffffffffffffffffffff1673ffffffffffffffffffffffffffffffffffffffff16815260200190815260200160002060009054906101000a900460ff16156124205760006006600088815260200190815260200160002060008373ffffffffffffffffffffffffffffffffffffffff1673ffffffffffffffffffffffffffffffffffffffff16815260200190815260200160002060006101000a81548160ff0219169083151502179055505b50808061242c90613db1565b91505061220c565b5060046000858152602001908152602001600020805490508160040160009054906101000a900460ff1660ff1611158015612483575060008160040160009054906101000a900460ff1660ff16115b6124c2576040517f08c379a00000000000000000000000000000000000000000000000000000000081526004016124b99061469c565b60405180910390fd5b6000600560008681526020019081526020016000208190555060008160040160016101000a81548160ff021916908315150217905550837fd86a9c261db40b59e01ada44e46b8e47cfbbeb0e4451ae83de2ff684e0afc124848460405161252a929190614747565b60405180910390a250505050565b600160009054906101000a900473ffffffffffffffffffffffffffffffffffffffff1673ffffffffffffffffffffffffffffffffffffffff163373ffffffffffffffffffffffffffffffffffffffff16146125c8576040517f08c379a00000000000000000000000000000000000000000000000000000000081526004016125bf9061453d565b60405180910390fd5b60018060146101000a81548160ff0219169083151502179055507f0e2fb031ee032dc02d8011dc50b816eb450cf856abd8261680dac74f72165bd2600160405161261291906138d2565b60405180910390a1565b60026020528060005260406000206000915090508060000160009054906101000a900473ffffffffffffffffffffffffffffffffffffffff16908060010160009054906101000a900473ffffffffffffffffffffffffffffffffffffffff16908060010160149054906101000a900467ffffffffffffffff16908060020154908060030154908060040160009054906101000a900460ff16908060040160019054906101000a900460ff16908060040160029054906101000a900473ffffffffffffffffffffffffffffffffffffffff16905088565b600080600080600080600080600080600260008c815260200190815260200160002090508060000160009054906101000a900473ffffffffffffffffffffffffffffffffffffffff1699508060010160009054906101000a900473ffffffffffffffffffffffffffffffffffffffff1698508060010160149054906101000a900467ffffffffffffffff16975080600301549550806002015496508060040160009054906101000a900460ff169450600560008c81526020019081526020016000205493508060040160019054906101000a900460ff1692508060040160029054906101000a900473ffffffffffffffffffffffffffffffffffffffff169150509193959799909294969850565b600160149054906101000a900460ff1615612850576040517f08c379a000000000000000000000000000000000000000000000000000000000815260040161284790613c8a565b60405180910390fd5b6000600260008481526020019081526020016000209050600073ffffffffffffffffffffffffffffffffffffffff168160000160009054906101000a900473ffffffffffffffffffffffffffffffffffffffff1673ffffffffffffffffffffffffffffffffffffffff16036128fa576040517f08c379a00000000000000000000000000000000000000000000000000000000081526004016128f190613f83565b60405180910390fd5b600073ffffffffffffffffffffffffffffffffffffffff168160040160029054906101000a900473ffffffffffffffffffffffffffffffffffffffff1673ffffffffffffffffffffffffffffffffffffffff160361298d576040517f08c379a0000000000000000000000000000000000000000000000000000000008152600401612984906147b7565b60405180910390fd5b600082116129d0576040517f08c379a00000000000000000000000000000000000000000000000000000000081526004016129c790614823565b60405180910390fd5b8060040160029054906101000a900473ffffffffffffffffffffffffffffffffffffffff1673ffffffffffffffffffffffffffffffffffffffff166323b872dd3330856040518463ffffffff1660e01b8152600401612a3193929190614843565b6020604051808303816000875af1158015612a50573d6000803e3d6000fd5b505050506040513d601f19601f82011682018060405250810190612a74919061449b565b612ab3576040517f08c379a0000000000000000000000000000000000000000000000000000000008152600401612aaa906148c6565b60405180910390fd5b81816003016000828254612ac791906140e7565b925050819055503373ffffffffffffffffffffffffffffffffffffffff16837fad5b4075b97dbf75ad5c78f7afac948e4ae611c4fdf2825e2ce3c6c96925bf3b848460030154604051612b1b9291906144c8565b60405180910390a3505050565b600160149054906101000a900460ff1615612b78576040517f08c379a0000000000000000000000000000000000000000000000000000000008152600401612b6f90613c8a565b60405180910390fd5b6000600260008381526020019081526020016000209050600073ffffffffffffffffffffffffffffffffffffffff168160000160009054906101000a900473ffffffffffffffffffffffffffffffffffffffff1673ffffffffffffffffffffffffffffffffffffffff1603612c22576040517f08c379a0000000000000000000000000000000000000000000000000000000008152600401612c1990613f83565b60405180910390fd5b600073ffffffffffffffffffffffffffffffffffffffff168160040160029054906101000a900473ffffffffffffffffffffffffffffffffffffffff1673ffffffffffffffffffffffffffffffffffffffff1614612cb5576040517f08c379a0000000000000000000000000000000000000000000000000000000008152600401612cac90614932565b60405180910390fd5b60003411612cf8576040517f08c379a0000000000000000000000000000000000000000000000000000000008152600401612cef90614823565b60405180910390fd5b34816003016000828254612d0c91906140e7565b925050819055503373ffffffffffffffffffffffffffffffffffffffff16827fad5b4075b97dbf75ad5c78f7afac948e4ae611c4fdf2825e2ce3c6c96925bf3b348460030154604051612d609291906144c8565b60405180910390a35050565b606060046000838152602001908152602001600020805480602002602001604051908101604052809291908181526020018280548015612e0157602002820191906000526020600020905b8160009054906101000a900473ffffffffffffffffffffffffffffffffffffffff1673ffffffffffffffffffffffffffffffffffffffff1681526020019060010190808311612db7575b50505050509050919050565b60036020528160005260406000206020528060005260406000206000915091509054906101000a900460ff1681565b600160149054906101000a900460ff1615612e8c576040517f08c379a0000000000000000000000000000000000000000000000000000000008152600401612e8390613c8a565b60405180910390fd5b60006002600085815260200190815260200160002090508060000160009054906101000a900473ffffffffffffffffffffffffffffffffffffffff1673ffffffffffffffffffffffffffffffffffffffff163373ffffffffffffffffffffffffffffffffffffffff1614612f35576040517f08c379a0000000000000000000000000000000000000000000000000000000008152600401612f2c90614190565b60405180910390fd5b8060040160019054906101000a900460ff1615612f87576040517f08c379a0000000000000000000000000000000000000000000000000000000008152600401612f7e90614615565b60405180910390fd5b60005b838390508110156131bf576000848483818110612faa57612fa9613df9565b5b9050602002016020810190612fbf919061392d565b9050600073ffffffffffffffffffffffffffffffffffffffff168173ffffffffffffffffffffffffffffffffffffffff1603613030576040517f08c379a000000000000000000000000000000000000000000000000000000000815260040161302790613e74565b60405180910390fd5b6003600087815260200190815260200160002060008273ffffffffffffffffffffffffffffffffffffffff1673ffffffffffffffffffffffffffffffffffffffff16815260200190815260200160002060009054906101000a900460ff16156130ce576040517f08c379a00000000000000000000000000000000000000000000000000000000081526004016130c590613ee0565b60405180910390fd5b60016003600088815260200190815260200160002060008373ffffffffffffffffffffffffffffffffffffffff1673ffffffffffffffffffffffffffffffffffffffff16815260200190815260200160002060006101000a81548160ff02191690831515021790555060046000878152602001908152602001600020819080600181540180825580915050600190039060005260206000200160009091909190916101000a81548173ffffffffffffffffffffffffffffffffffffffff021916908373ffffffffffffffffffffffffffffffffffffffff1602179055505080806131b790613db1565b915050612f8a565b5060046000858152602001908152602001600020805490508160040160009054906101000a900460ff1660ff161115801561320e575060008160040160009054906101000a900460ff1660ff16115b61324d576040517f08c379a00000000000000000000000000000000000000000000000000000000081526004016132449061469c565b60405180910390fd5b613256846132bc565b837fdd86f5bb92b34bb8fd4bec475d714961b577cf0efc3b7b3fbf90787c76518b9e8484604051613288929190614747565b60405180910390a250505050565b600160009054906101000a900473ffffffffffffffffffffffffffffffffffffffff1681565b6000600560008381526020019081526020016000208190555060006002600083815260200190815260200160002060040160016101000a81548160ff021916908315150217905550600060046000838152602001908152602001600020905060005b818054905081101561344d57600082828154811061333f5761333e613df9565b5b9060005260206000200160009054906101000a900473ffffffffffffffffffffffffffffffffffffffff1690506006600085815260200190815260200160002060008273ffffffffffffffffffffffffffffffffffffffff1673ffffffffffffffffffffffffffffffffffffffff16815260200190815260200160002060009054906101000a900460ff16156134395760006006600086815260200190815260200160002060008373ffffffffffffffffffffffffffffffffffffffff1673ffffffffffffffffffffffffffffffffffffffff16815260200190815260200160002060006101000a81548160ff0219169083151502179055505b50808061344590613db1565b91505061331e565b505050565b600060046000848152602001908152602001600020905060005b81805490508110156135ef578273ffffffffffffffffffffffffffffffffffffffff168282815481106134a2576134a1613df9565b5b9060005260206000200160009054906101000a900473ffffffffffffffffffffffffffffffffffffffff1673ffffffffffffffffffffffffffffffffffffffff16036135dc5781600183805490506134fa9190614360565b8154811061350b5761350a613df9565b5b9060005260206000200160009054906101000a900473ffffffffffffffffffffffffffffffffffffffff1682828154811061354957613548613df9565b5b9060005260206000200160006101000a81548173ffffffffffffffffffffffffffffffffffffffff021916908373ffffffffffffffffffffffffffffffffffffffff160217905550818054806135a2576135a1614952565b5b6001900381819060005260206000200160006101000a81549073ffffffffffffffffffffffffffffffffffffffff021916905590556135ef565b80806135e790613db1565b91505061346c565b50505050565b600080fd5b600080fd5b600067ffffffffffffffff82169050919050565b61361c816135ff565b811461362757600080fd5b50565b60008135905061363981613613565b92915050565b6000819050919050565b6136528161363f565b811461365d57600080fd5b50565b60008135905061366f81613649565b92915050565b600073ffffffffffffffffffffffffffffffffffffffff82169050919050565b60006136a082613675565b9050919050565b6136b081613695565b81146136bb57600080fd5b50565b6000813590506136cd816136a7565b92915050565b600080fd5b600080fd5b600080fd5b60008083601f8401126136f8576136f76136d3565b5b8235905067ffffffffffffffff811115613715576137146136d8565b5b602083019150836020820283011115613731576137306136dd565b5b9250929050565b600060ff82169050919050565b61374e81613738565b811461375957600080fd5b50565b60008135905061376b81613745565b92915050565b600080600080600080600060c0888a0312156137905761378f6135f5565b5b600061379e8a828b0161362a565b97505060206137af8a828b01613660565b96505060406137c08a828b016136be565b955050606088013567ffffffffffffffff8111156137e1576137e06135fa565b5b6137ed8a828b016136e2565b945094505060806138008a828b0161375c565b92505060a06138118a828b016136be565b91505092959891949750929550565b6138298161363f565b82525050565b60006020820190506138446000830184613820565b92915050565b6000602082840312156138605761385f6135f5565b5b600061386e84828501613660565b91505092915050565b6000806040838503121561388e5761388d6135f5565b5b600061389c85828601613660565b92505060206138ad858286016136be565b9150509250929050565b60008115159050919050565b6138cc816138b7565b82525050565b60006020820190506138e760008301846138c3565b92915050565b60008060408385031215613904576139036135f5565b5b600061391285828601613660565b925050602061392385828601613660565b9150509250929050565b600060208284031215613943576139426135f5565b5b6000613951848285016136be565b91505092915050565b60008060408385031215613971576139706135f5565b5b600061397f85828601613660565b92505060206139908582860161375c565b9150509250929050565b6139a381613695565b82525050565b60006020820190506139be600083018461399a565b92915050565b6000806000604084860312156139dd576139dc6135f5565b5b60006139eb86828701613660565b935050602084013567ffffffffffffffff811115613a0c57613a0b6135fa565b5b613a18868287016136e2565b92509250509250925092565b613a2d816135ff565b82525050565b613a3c81613738565b82525050565b600061010082019050613a58600083018b61399a565b613a65602083018a61399a565b613a726040830189613a24565b613a7f6060830188613820565b613a8c6080830187613820565b613a9960a0830186613a33565b613aa660c08301856138c3565b613ab360e083018461399a565b9998505050505050505050565b600061012082019050613ad6600083018c61399a565b613ae3602083018b61399a565b613af0604083018a613a24565b613afd6060830189613820565b613b0a6080830188613820565b613b1760a0830187613a33565b613b2460c0830186613820565b613b3160e08301856138c3565b613b3f61010083018461399a565b9a9950505050505050505050565b600081519050919050565b600082825260208201905092915050565b6000819050602082019050919050565b613b8281613695565b82525050565b6000613b948383613b79565b60208301905092915050565b6000602082019050919050565b6000613bb882613b4d565b613bc28185613b58565b9350613bcd83613b69565b8060005b83811015613bfe578151613be58882613b88565b9750613bf083613ba0565b925050600181019050613bd1565b5085935050505092915050565b60006020820190508181036000830152613c258184613bad565b905092915050565b600082825260208201905092915050565b7f5041555345440000000000000000000000000000000000000000000000000000600082015250565b6000613c74600683613c2d565b9150613c7f82613c3e565b602082019050919050565b60006020820190508181036000830152613ca381613c67565b9050919050565b7f494e56414c49445f554e4c4f434b000000000000000000000000000000000000600082015250565b6000613ce0600e83613c2d565b9150613ceb82613caa565b602082019050919050565b60006020820190508181036000830152613d0f81613cd3565b9050919050565b7f494e56414c49445f5448524553484f4c44000000000000000000000000000000600082015250565b6000613d4c601183613c2d565b9150613d5782613d16565b602082019050919050565b60006020820190508181036000830152613d7b81613d3f565b9050919050565b7f4e487b7100000000000000000000000000000000000000000000000000000000600052601160045260246000fd5b6000613dbc8261363f565b91507fffffffffffffffffffffffffffffffffffffffffffffffffffffffffffffffff8203613dee57613ded613d82565b5b600182019050919050565b7f4e487b7100000000000000000000000000000000000000000000000000000000600052603260045260246000fd5b7f5a45524f5f475541524449414e00000000000000000000000000000000000000600082015250565b6000613e5e600d83613c2d565b9150613e6982613e28565b602082019050919050565b60006020820190508181036000830152613e8d81613e51565b9050919050565b7f4455505f475541524449414e0000000000000000000000000000000000000000600082015250565b6000613eca600c83613c2d565b9150613ed582613e94565b602082019050919050565b60006020820190508181036000830152613ef981613ebd565b9050919050565b6000606082019050613f156000830186613a24565b613f226020830185613820565b613f2f6040830184613a33565b949350505050565b7f4e4f5f5641554c54000000000000000000000000000000000000000000000000600082015250565b6000613f6d600883613c2d565b9150613f7882613f37565b602082019050919050565b60006020820190508181036000830152613f9c81613f60565b9050919050565b7f4e4f545f475541524449414e0000000000000000000000000000000000000000600082015250565b6000613fd9600c83613c2d565b9150613fe482613fa3565b602082019050919050565b6000602082019050818103600083015261400881613fcc565b9050919050565b7f414c52454144595f415050524f56454400000000000000000000000000000000600082015250565b6000614045601083613c2d565b91506140508261400f565b602082019050919050565b6000602082019050818103600083015261407481614038565b9050919050565b7f414c52454144595f454e41424c45440000000000000000000000000000000000600082015250565b60006140b1600f83613c2d565b91506140bc8261407b565b602082019050919050565b600060208201905081810360008301526140e0816140a4565b9050919050565b60006140f28261363f565b91506140fd8361363f565b925082820190508082111561411557614114613d82565b5b92915050565b60006040820190506141306000830185613820565b61413d60208301846138c3565b9392505050565b7f4e4f545f4f574e45520000000000000000000000000000000000000000000000600082015250565b600061417a600983613c2d565b915061418582614144565b602082019050919050565b600060208201905081810360008301526141a98161416d565b9050919050565b7f5245454e5452414e435900000000000000000000000000000000000000000000600082015250565b60006141e6600a83613c2d565b91506141f1826141b0565b602082019050919050565b60006020820190508181036000830152614215816141d9565b9050919050565b7f4e4f5f42454e4546494349415259000000000000000000000000000000000000600082015250565b6000614252600e83613c2d565b915061425d8261421c565b602082019050919050565b6000602082019050818103600083015261428181614245565b9050919050565b7f4241445f414d4f554e5400000000000000000000000000000000000000000000600082015250565b60006142be600a83613c2d565b91506142c982614288565b602082019050919050565b600060208201905081810360008301526142ed816142b1565b9050919050565b7f4c4f434b45440000000000000000000000000000000000000000000000000000600082015250565b600061432a600683613c2d565b9150614335826142f4565b602082019050919050565b600060208201905081810360008301526143598161431d565b9050919050565b600061436b8261363f565b91506143768361363f565b925082820390508181111561438e5761438d613d82565b5b92915050565b600081905092915050565b50565b60006143af600083614394565b91506143ba8261439f565b600082019050919050565b60006143d0826143a2565b9150819050919050565b7f5452414e534645525f4641494c00000000000000000000000000000000000000600082015250565b6000614410600d83613c2d565b915061441b826143da565b602082019050919050565b6000602082019050818103600083015261443f81614403565b9050919050565b600060408201905061445b600083018561399a565b6144686020830184613820565b9392505050565b614478816138b7565b811461448357600080fd5b50565b6000815190506144958161446f565b92915050565b6000602082840312156144b1576144b06135f5565b5b60006144bf84828501614486565b91505092915050565b60006040820190506144dd6000830185613820565b6144ea6020830184613820565b9392505050565b7f4e4f545f41444d494e0000000000000000000000000000000000000000000000600082015250565b6000614527600983613c2d565b9150614532826144f1565b602082019050919050565b600060208201905081810360008301526145568161451a565b9050919050565b7f5a45524f5f41444d494e00000000000000000000000000000000000000000000600082015250565b6000614593600a83613c2d565b915061459e8261455d565b602082019050919050565b600060208201905081810360008301526145c281614586565b9050919050565b7f4541524c595f454e41424c454400000000000000000000000000000000000000600082015250565b60006145ff600d83613c2d565b915061460a826145c9565b602082019050919050565b6000602082019050818103600083015261462e816145f2565b9050919050565b600060208201905061464a6000830184613a33565b92915050565b7f4241445f5448524553484f4c4400000000000000000000000000000000000000600082015250565b6000614686600d83613c2d565b915061469182614650565b602082019050919050565b600060208201905081810360008301526146b581614679565b9050919050565b6000819050919050565b60006146d560208401846136be565b905092915050565b6000602082019050919050565b60006146f68385613b58565b9350614701826146bc565b8060005b8581101561473a5761471782846146c6565b6147218882613b88565b975061472c836146dd565b925050600181019050614705565b5085925050509392505050565b600060208201905081810360008301526147628184866146ea565b90509392505050565b7f4e41544956455f5641554c540000000000000000000000000000000000000000600082015250565b60006147a1600c83613c2d565b91506147ac8261476b565b602082019050919050565b600060208201905081810360008301526147d081614794565b9050919050565b7f4e4f5f56414c5545000000000000000000000000000000000000000000000000600082015250565b600061480d600883613c2d565b9150614818826147d7565b602082019050919050565b6000602082019050818103600083015261483c81614800565b9050919050565b6000606082019050614858600083018661399a565b614865602083018561399a565b6148726040830184613820565b949350505050565b7f5452414e534645525f46524f4d5f4641494c0000000000000000000000000000600082015250565b60006148b0601283613c2d565b91506148bb8261487a565b602082019050919050565b600060208201905081810360008301526148df816148a3565b9050919050565b7f544f4b454e5f5641554c54000000000000000000000000000000000000000000600082015250565b600061491c600b83613c2d565b9150614927826148e6565b602082019050919050565b6000602082019050818103600083015261494b8161490f565b9050919050565b7f4e487b7100000000000000000000000000000000000000000000000000000000600052603160045260246000fdfea2646970667358221220f7fb5a43cc7482504e2c2c98fb47bc5c6a3322676df94c72d63c2590ec98daf364736f6c63430008140033",
  "linkReferences": {},
  "deployedLinkReferences": {}
}